{
  "_format": "hh-sol-artifact-1",
  "contractName": "LiquidityPool",
  "sourceName": "contracts/LiquidityPool.sol",
  "abi": [
    {
      "inputs": [
        {
          "internalType": "address",
          "name": "usdcAddress",
          "type": "address"
        },
        {
          "internalType": "address",
          "name": "flsAddress",
          "type": "address"
        },
        {
          "internalType": "uint256",
          "name": "initialRate",
          "type": "uint256"
        }
      ],
      "stateMutability": "nonpayable",
      "type": "constructor"
    },
    {
      "inputs": [],
      "name": "AccessControlBadConfirmation",
      "type": "error"
    },
    {
      "inputs": [
        {
          "internalType": "address",
          "name": "account",
          "type": "address"
        },
        {
          "internalType": "bytes32",
          "name": "neededRole",
          "type": "bytes32"
        }
      ],
      "name": "AccessControlUnauthorizedAccount",
      "type": "error"
    },
    {
      "inputs": [],
      "name": "EnforcedPause",
      "type": "error"
    },
    {
      "inputs": [],
      "name": "ExpectedPause",
      "type": "error"
    },
    {
      "inputs": [],
      "name": "MathOverflowedMulDiv",
      "type": "error"
    },
    {
      "anonymous": false,
      "inputs": [
        {
          "indexed": false,
          "internalType": "uint256",
          "name": "newRate",
          "type": "uint256"
        }
      ],
      "name": "ExchangeRateUpdated",
      "type": "event"
    },
    {
      "anonymous": false,
      "inputs": [
        {
          "indexed": false,
          "internalType": "address",
          "name": "account",
          "type": "address"
        }
      ],
      "name": "Paused",
      "type": "event"
    },
    {
      "anonymous": false,
      "inputs": [
        {
          "indexed": true,
          "internalType": "bytes32",
          "name": "role",
          "type": "bytes32"
        },
        {
          "indexed": true,
          "internalType": "bytes32",
          "name": "previousAdminRole",
          "type": "bytes32"
        },
        {
          "indexed": true,
          "internalType": "bytes32",
          "name": "newAdminRole",
          "type": "bytes32"
        }
      ],
      "name": "RoleAdminChanged",
      "type": "event"
    },
    {
      "anonymous": false,
      "inputs": [
        {
          "indexed": true,
          "internalType": "bytes32",
          "name": "role",
          "type": "bytes32"
        },
        {
          "indexed": true,
          "internalType": "address",
          "name": "account",
          "type": "address"
        },
        {
          "indexed": true,
          "internalType": "address",
          "name": "sender",
          "type": "address"
        }
      ],
      "name": "RoleGranted",
      "type": "event"
    },
    {
      "anonymous": false,
      "inputs": [
        {
          "indexed": true,
          "internalType": "bytes32",
          "name": "role",
          "type": "bytes32"
        },
        {
          "indexed": true,
          "internalType": "address",
          "name": "account",
          "type": "address"
        },
        {
          "indexed": true,
          "internalType": "address",
          "name": "sender",
          "type": "address"
        }
      ],
      "name": "RoleRevoked",
      "type": "event"
    },
    {
      "anonymous": false,
      "inputs": [
        {
          "indexed": true,
          "internalType": "address",
          "name": "user",
          "type": "address"
        },
        {
          "indexed": false,
          "internalType": "uint256",
          "name": "flsAmount",
          "type": "uint256"
        },
        {
          "indexed": false,
          "internalType": "uint256",
          "name": "usdcAmount",
          "type": "uint256"
        }
      ],
      "name": "SwapFLSForUSDC",
      "type": "event"
    },
    {
      "anonymous": false,
      "inputs": [
        {
          "indexed": true,
          "internalType": "address",
          "name": "user",
          "type": "address"
        },
        {
          "indexed": false,
          "internalType": "uint256",
          "name": "usdcAmount",
          "type": "uint256"
        },
        {
          "indexed": false,
          "internalType": "uint256",
          "name": "flsAmount",
          "type": "uint256"
        }
      ],
      "name": "SwapUSDCForFLS",
      "type": "event"
    },
    {
      "anonymous": false,
      "inputs": [
        {
          "indexed": true,
          "internalType": "address",
          "name": "owner",
          "type": "address"
        },
        {
          "indexed": false,
          "internalType": "uint256",
          "name": "amount",
          "type": "uint256"
        }
      ],
      "name": "USDCDeposited",
      "type": "event"
    },
    {
      "anonymous": false,
      "inputs": [
        {
          "indexed": true,
          "internalType": "address",
          "name": "owner",
          "type": "address"
        },
        {
          "indexed": false,
          "internalType": "uint256",
          "name": "amount",
          "type": "uint256"
        }
      ],
      "name": "USDCWithdrawn",
      "type": "event"
    },
    {
      "anonymous": false,
      "inputs": [
        {
          "indexed": false,
          "internalType": "address",
          "name": "account",
          "type": "address"
        }
      ],
      "name": "Unpaused",
      "type": "event"
    },
    {
      "inputs": [],
      "name": "DEFAULT_ADMIN_ROLE",
      "outputs": [
        {
          "internalType": "bytes32",
          "name": "",
          "type": "bytes32"
        }
      ],
      "stateMutability": "view",
      "type": "function"
    },
    {
      "inputs": [],
      "name": "OWNER_ROLE",
      "outputs": [
        {
          "internalType": "bytes32",
          "name": "",
          "type": "bytes32"
        }
      ],
      "stateMutability": "view",
      "type": "function"
    },
    {
      "inputs": [
        {
          "internalType": "uint256",
          "name": "usdcAmount",
          "type": "uint256"
        }
      ],
      "name": "depositUsdc",
      "outputs": [],
      "stateMutability": "nonpayable",
      "type": "function"
    },
    {
      "inputs": [],
      "name": "exchangeRate",
      "outputs": [
        {
          "internalType": "uint256",
          "name": "",
          "type": "uint256"
        }
      ],
      "stateMutability": "view",
      "type": "function"
    },
    {
      "inputs": [],
      "name": "fls",
      "outputs": [
        {
          "internalType": "contract FLS",
          "name": "",
          "type": "address"
        }
      ],
      "stateMutability": "view",
      "type": "function"
    },
    {
      "inputs": [],
      "name": "getExchangeRate",
      "outputs": [
        {
          "internalType": "uint256",
          "name": "",
          "type": "uint256"
        }
      ],
      "stateMutability": "view",
      "type": "function"
    },
    {
      "inputs": [],
      "name": "getPoolPairAddresses",
      "outputs": [
        {
          "internalType": "address",
          "name": "",
          "type": "address"
        },
        {
          "internalType": "address",
          "name": "",
          "type": "address"
        }
      ],
      "stateMutability": "view",
      "type": "function"
    },
    {
      "inputs": [
        {
          "internalType": "bytes32",
          "name": "role",
          "type": "bytes32"
        }
      ],
      "name": "getRoleAdmin",
      "outputs": [
        {
          "internalType": "bytes32",
          "name": "",
          "type": "bytes32"
        }
      ],
      "stateMutability": "view",
      "type": "function"
    },
    {
      "inputs": [
        {
          "internalType": "bytes32",
          "name": "role",
          "type": "bytes32"
        },
        {
          "internalType": "address",
          "name": "account",
          "type": "address"
        }
      ],
      "name": "grantRole",
      "outputs": [],
      "stateMutability": "nonpayable",
      "type": "function"
    },
    {
      "inputs": [
        {
          "internalType": "bytes32",
          "name": "role",
          "type": "bytes32"
        },
        {
          "internalType": "address",
          "name": "account",
          "type": "address"
        }
      ],
      "name": "hasRole",
      "outputs": [
        {
          "internalType": "bool",
          "name": "",
          "type": "bool"
        }
      ],
      "stateMutability": "view",
      "type": "function"
    },
    {
      "inputs": [],
      "name": "pause",
      "outputs": [],
      "stateMutability": "nonpayable",
      "type": "function"
    },
    {
      "inputs": [],
      "name": "paused",
      "outputs": [
        {
          "internalType": "bool",
          "name": "",
          "type": "bool"
        }
      ],
      "stateMutability": "view",
      "type": "function"
    },
    {
      "inputs": [
        {
          "internalType": "bytes32",
          "name": "role",
          "type": "bytes32"
        },
        {
          "internalType": "address",
          "name": "callerConfirmation",
          "type": "address"
        }
      ],
      "name": "renounceRole",
      "outputs": [],
      "stateMutability": "nonpayable",
      "type": "function"
    },
    {
      "inputs": [
        {
          "internalType": "bytes32",
          "name": "role",
          "type": "bytes32"
        },
        {
          "internalType": "address",
          "name": "account",
          "type": "address"
        }
      ],
      "name": "revokeRole",
      "outputs": [],
      "stateMutability": "nonpayable",
      "type": "function"
    },
    {
      "inputs": [
        {
          "internalType": "bytes4",
          "name": "interfaceId",
          "type": "bytes4"
        }
      ],
      "name": "supportsInterface",
      "outputs": [
        {
          "internalType": "bool",
          "name": "",
          "type": "bool"
        }
      ],
      "stateMutability": "view",
      "type": "function"
    },
    {
      "inputs": [
        {
          "internalType": "uint256",
          "name": "flsAmount",
          "type": "uint256"
        }
      ],
      "name": "swapFlsForUsdc",
      "outputs": [],
      "stateMutability": "nonpayable",
      "type": "function"
    },
    {
      "inputs": [
        {
          "internalType": "uint256",
          "name": "usdcAmount",
          "type": "uint256"
        }
      ],
      "name": "swapUsdcForFls",
      "outputs": [],
      "stateMutability": "nonpayable",
      "type": "function"
    },
    {
      "inputs": [],
      "name": "unpause",
      "outputs": [],
      "stateMutability": "nonpayable",
      "type": "function"
    },
    {
      "inputs": [
        {
          "internalType": "uint256",
          "name": "rate",
          "type": "uint256"
        }
      ],
      "name": "updateExchangeRate",
      "outputs": [],
      "stateMutability": "nonpayable",
      "type": "function"
    },
    {
      "inputs": [],
      "name": "usdc",
      "outputs": [
        {
          "internalType": "contract IERC20",
          "name": "",
          "type": "address"
        }
      ],
      "stateMutability": "view",
      "type": "function"
    },
    {
      "inputs": [
        {
          "internalType": "uint256",
          "name": "usdcAmount",
          "type": "uint256"
        }
      ],
      "name": "withdrawUsdc",
      "outputs": [],
      "stateMutability": "nonpayable",
      "type": "function"
    }
  ],
  "bytecode": "0x60806040523480156200001157600080fd5b506040516200218d3803806200218d833981810160405281019062000037919062000470565b6000600160006101000a81548160ff021916908315150217905550600073ffffffffffffffffffffffffffffffffffffffff168373ffffffffffffffffffffffffffffffffffffffff1603620000c4576040517f08c379a0000000000000000000000000000000000000000000000000000000008152600401620000bb906200052d565b60405180910390fd5b600073ffffffffffffffffffffffffffffffffffffffff168273ffffffffffffffffffffffffffffffffffffffff160362000136576040517f08c379a00000000000000000000000000000000000000000000000000000000081526004016200012d906200059f565b60405180910390fd5b600081116200017c576040517f08c379a0000000000000000000000000000000000000000000000000000000008152600401620001739062000637565b60405180910390fd5b826001806101000a81548173ffffffffffffffffffffffffffffffffffffffff021916908373ffffffffffffffffffffffffffffffffffffffff16021790555081600260006101000a81548173ffffffffffffffffffffffffffffffffffffffff021916908373ffffffffffffffffffffffffffffffffffffffff16021790555080600381905550620002196000801b336200025660201b60201c565b506200024c7fb19546dff01e856fb3f010c267a7b1c60363cf8a4664e21cc89c26224620214e336200025660201b60201c565b5050505062000659565b60006200026a83836200035960201b60201c565b6200034e57600160008085815260200190815260200160002060000160008473ffffffffffffffffffffffffffffffffffffffff1673ffffffffffffffffffffffffffffffffffffffff16815260200190815260200160002060006101000a81548160ff021916908315150217905550620002ea620003c360201b60201c565b73ffffffffffffffffffffffffffffffffffffffff168273ffffffffffffffffffffffffffffffffffffffff16847f2f8788117e7eff1d82e926ec794901d17c78024a50270940304540a733656f0d60405160405180910390a46001905062000353565b600090505b92915050565b600080600084815260200190815260200160002060000160008373ffffffffffffffffffffffffffffffffffffffff1673ffffffffffffffffffffffffffffffffffffffff16815260200190815260200160002060009054906101000a900460ff16905092915050565b600033905090565b600080fd5b600073ffffffffffffffffffffffffffffffffffffffff82169050919050565b6000620003fd82620003d0565b9050919050565b6200040f81620003f0565b81146200041b57600080fd5b50565b6000815190506200042f8162000404565b92915050565b6000819050919050565b6200044a8162000435565b81146200045657600080fd5b50565b6000815190506200046a816200043f565b92915050565b6000806000606084860312156200048c576200048b620003cb565b5b60006200049c868287016200041e565b9350506020620004af868287016200041e565b9250506040620004c28682870162000459565b9150509250925092565b600082825260208201905092915050565b7f496e76616c696420555344432061646472657373000000000000000000000000600082015250565b600062000515601483620004cc565b91506200052282620004dd565b602082019050919050565b60006020820190508181036000830152620005488162000506565b9050919050565b7f496e76616c696420464c5320746f6b656e206164647265737300000000000000600082015250565b600062000587601983620004cc565b915062000594826200054f565b602082019050919050565b60006020820190508181036000830152620005ba8162000578565b9050919050565b7f496e697469616c2065786368616e67652072617465206d75737420626520706f60008201527f7369746976650000000000000000000000000000000000000000000000000000602082015250565b60006200061f602683620004cc565b91506200062c82620005c1565b604082019050919050565b60006020820190508181036000830152620006528162000610565b9050919050565b611b2480620006696000396000f3fe608060405234801561001057600080fd5b50600436106101375760003560e01c80635c975abb116100b8578063d547741f1161007c578063d547741f14610302578063e06a55861461031e578063e58378bb1461033d578063e6aa216c1461035b578063f505b68514610379578063f7606bb01461039557610137565b80635c975abb146102705780638456cb591461028e57806391d1485414610298578063a217fddf146102c8578063b9e205ae146102e657610137565b806336568abe116100ff57806336568abe146101f25780633ba0b9a91461020e5780633e413bee1461022c5780633f4ba83a1461024a5780635b06dece1461025457610137565b806301ffc9a71461013c5780632357928e1461016c578063248a9ca3146101885780632f2ff15d146101b857806334431f3d146101d4575b600080fd5b610156600480360381019061015191906114cf565b6103b1565b6040516101639190611517565b60405180910390f35b61018660048036038101906101819190611568565b61042b565b005b6101a2600480360381019061019d91906115cb565b6105d1565b6040516101af9190611607565b60405180910390f35b6101d260048036038101906101cd9190611680565b6105f0565b005b6101dc610612565b6040516101e9919061171f565b60405180910390f35b61020c60048036038101906102079190611680565b610638565b005b6102166106b3565b6040516102239190611749565b60405180910390f35b6102346106b9565b6040516102419190611785565b60405180910390f35b6102526106dd565b005b61026e60048036038101906102699190611568565b610712565b005b6102786108b6565b6040516102859190611517565b60405180910390f35b6102966108cd565b005b6102b260048036038101906102ad9190611680565b610902565b6040516102bf9190611517565b60405180910390f35b6102d061096c565b6040516102dd9190611607565b60405180910390f35b61030060048036038101906102fb9190611568565b610973565b005b61031c60048036038101906103179190611680565b610a2a565b005b610326610a4c565b6040516103349291906117af565b60405180910390f35b610345610a9b565b6040516103529190611607565b60405180910390f35b610363610abf565b6040516103709190611749565b60405180910390f35b610393600480360381019061038e9190611568565b610ac9565b005b6103af60048036038101906103aa9190611568565b610cfc565b005b60007f7965db0b000000000000000000000000000000000000000000000000000000007bffffffffffffffffffffffffffffffffffffffffffffffffffffffff1916827bffffffffffffffffffffffffffffffffffffffffffffffffffffffff19161480610424575061042382610f6b565b5b9050919050565b7fb19546dff01e856fb3f010c267a7b1c60363cf8a4664e21cc89c26224620214e61045581610fd5565b61045d610fe9565b600082116104a0576040517f08c379a000000000000000000000000000000000000000000000000000000000815260040161049790611835565b60405180910390fd5b60018054906101000a900473ffffffffffffffffffffffffffffffffffffffff1673ffffffffffffffffffffffffffffffffffffffff166323b872dd3330856040518463ffffffff1660e01b81526004016104fd93929190611855565b6020604051808303816000875af115801561051c573d6000803e3d6000fd5b505050506040513d601f19601f8201168201806040525081019061054091906118b8565b61057f576040517f08c379a000000000000000000000000000000000000000000000000000000000815260040161057690611931565b60405180910390fd5b3373ffffffffffffffffffffffffffffffffffffffff167f80ecc532cf2e08856601df42646970d676a686d8eeacbfd2038fae4ff288da56836040516105c59190611749565b60405180910390a25050565b6000806000838152602001908152602001600020600101549050919050565b6105f9826105d1565b61060281610fd5565b61060c838361102a565b50505050565b600260009054906101000a900473ffffffffffffffffffffffffffffffffffffffff1681565b61064061111b565b73ffffffffffffffffffffffffffffffffffffffff168173ffffffffffffffffffffffffffffffffffffffff16146106a4576040517f6697b23200000000000000000000000000000000000000000000000000000000815260040160405180910390fd5b6106ae8282611123565b505050565b60035481565b60018054906101000a900473ffffffffffffffffffffffffffffffffffffffff1681565b7fb19546dff01e856fb3f010c267a7b1c60363cf8a4664e21cc89c26224620214e61070781610fd5565b61070f611215565b50565b7fb19546dff01e856fb3f010c267a7b1c60363cf8a4664e21cc89c26224620214e61073c81610fd5565b610744610fe9565b60008211610787576040517f08c379a000000000000000000000000000000000000000000000000000000000815260040161077e90611835565b60405180910390fd5b60018054906101000a900473ffffffffffffffffffffffffffffffffffffffff1673ffffffffffffffffffffffffffffffffffffffff1663a9059cbb33846040518363ffffffff1660e01b81526004016107e2929190611951565b6020604051808303816000875af1158015610801573d6000803e3d6000fd5b505050506040513d601f19601f8201168201806040525081019061082591906118b8565b610864576040517f08c379a000000000000000000000000000000000000000000000000000000000815260040161085b90611931565b60405180910390fd5b3373ffffffffffffffffffffffffffffffffffffffff167f2aa7fb97600ea702b454359fc3d02ae9fa48367e7155505d38cee896e5b5aae7836040516108aa9190611749565b60405180910390a25050565b6000600160009054906101000a900460ff16905090565b7fb19546dff01e856fb3f010c267a7b1c60363cf8a4664e21cc89c26224620214e6108f781610fd5565b6108ff611278565b50565b600080600084815260200190815260200160002060000160008373ffffffffffffffffffffffffffffffffffffffff1673ffffffffffffffffffffffffffffffffffffffff16815260200190815260200160002060009054906101000a900460ff16905092915050565b6000801b81565b7fb19546dff01e856fb3f010c267a7b1c60363cf8a4664e21cc89c26224620214e61099d81610fd5565b6109a5610fe9565b600082116109e8576040517f08c379a00000000000000000000000000000000000000000000000000000000081526004016109df906119c6565b60405180910390fd5b816003819055507f388f446e9526fe5c9af20a5919b342370c8a7c0cb05245afe1e545658fa3cdba82604051610a1e9190611749565b60405180910390a15050565b610a33826105d1565b610a3c81610fd5565b610a468383611123565b50505050565b60008060018054906101000a900473ffffffffffffffffffffffffffffffffffffffff16600260009054906101000a900473ffffffffffffffffffffffffffffffffffffffff16915091509091565b7fb19546dff01e856fb3f010c267a7b1c60363cf8a4664e21cc89c26224620214e81565b6000600354905090565b610ad1610fe9565b60008111610b14576040517f08c379a0000000000000000000000000000000000000000000000000000000008152600401610b0b90611835565b60405180910390fd5b6000610b2682600354620f42406112da565b905060018054906101000a900473ffffffffffffffffffffffffffffffffffffffff1673ffffffffffffffffffffffffffffffffffffffff166323b872dd3330856040518463ffffffff1660e01b8152600401610b8593929190611855565b6020604051808303816000875af1158015610ba4573d6000803e3d6000fd5b505050506040513d601f19601f82011682018060405250810190610bc891906118b8565b610c07576040517f08c379a0000000000000000000000000000000000000000000000000000000008152600401610bfe90611931565b60405180910390fd5b600260009054906101000a900473ffffffffffffffffffffffffffffffffffffffff1673ffffffffffffffffffffffffffffffffffffffff166340c10f1933836040518363ffffffff1660e01b8152600401610c64929190611951565b6020604051808303816000875af1158015610c83573d6000803e3d6000fd5b505050506040513d601f19601f82011682018060405250810190610ca791906118b8565b503373ffffffffffffffffffffffffffffffffffffffff167fb6451878780f54478e411fc04f2b0e10a25932ea05af7f93410ed15ddb108e4d8383604051610cf09291906119e6565b60405180910390a25050565b610d04610fe9565b60008111610d47576040517f08c379a0000000000000000000000000000000000000000000000000000000008152600401610d3e90611835565b60405180910390fd5b6000610d5982620f42406003546112da565b9050600260009054906101000a900473ffffffffffffffffffffffffffffffffffffffff1673ffffffffffffffffffffffffffffffffffffffff16639dc29fac33846040518363ffffffff1660e01b8152600401610db8929190611951565b6020604051808303816000875af1158015610dd7573d6000803e3d6000fd5b505050506040513d601f19601f82011682018060405250810190610dfb91906118b8565b610e3a576040517f08c379a0000000000000000000000000000000000000000000000000000000008152600401610e3190611a5b565b60405180910390fd5b60018054906101000a900473ffffffffffffffffffffffffffffffffffffffff1673ffffffffffffffffffffffffffffffffffffffff1663a9059cbb33836040518363ffffffff1660e01b8152600401610e95929190611951565b6020604051808303816000875af1158015610eb4573d6000803e3d6000fd5b505050506040513d601f19601f82011682018060405250810190610ed891906118b8565b610f17576040517f08c379a0000000000000000000000000000000000000000000000000000000008152600401610f0e90611931565b60405180910390fd5b3373ffffffffffffffffffffffffffffffffffffffff167ff537dee51c3d996ff0b4cc7ff635ba681cd434af66a98a5a0596d1bc8cf4c78b8383604051610f5f9291906119e6565b60405180910390a25050565b60007f01ffc9a7000000000000000000000000000000000000000000000000000000007bffffffffffffffffffffffffffffffffffffffffffffffffffffffff1916827bffffffffffffffffffffffffffffffffffffffffffffffffffffffff1916149050919050565b610fe681610fe161111b565b6113e1565b50565b610ff16108b6565b15611028576040517fd93c066500000000000000000000000000000000000000000000000000000000815260040160405180910390fd5b565b60006110368383610902565b61111057600160008085815260200190815260200160002060000160008473ffffffffffffffffffffffffffffffffffffffff1673ffffffffffffffffffffffffffffffffffffffff16815260200190815260200160002060006101000a81548160ff0219169083151502179055506110ad61111b565b73ffffffffffffffffffffffffffffffffffffffff168273ffffffffffffffffffffffffffffffffffffffff16847f2f8788117e7eff1d82e926ec794901d17c78024a50270940304540a733656f0d60405160405180910390a460019050611115565b600090505b92915050565b600033905090565b600061112f8383610902565b1561120a57600080600085815260200190815260200160002060000160008473ffffffffffffffffffffffffffffffffffffffff1673ffffffffffffffffffffffffffffffffffffffff16815260200190815260200160002060006101000a81548160ff0219169083151502179055506111a761111b565b73ffffffffffffffffffffffffffffffffffffffff168273ffffffffffffffffffffffffffffffffffffffff16847ff6391f5c32d9c69d2a47ea670b442974b53935d1edc7fd64eb21e047a839171b60405160405180910390a46001905061120f565b600090505b92915050565b61121d611432565b6000600160006101000a81548160ff0219169083151502179055507f5db9ee0a495bf2e6ff9c91a7834c1ba4fdd244a5e8aa4e537bd38aeae4b073aa61126161111b565b60405161126e9190611a7b565b60405180910390a1565b611280610fe9565b60018060006101000a81548160ff0219169083151502179055507f62e78cea01bee320cd4e420270b5ea74000d11b0c9f74754ebdbfc544b05a2586112c361111b565b6040516112d09190611a7b565b60405180910390a1565b60008083850290506000801985870982811083820303915050600081036113155783828161130b5761130a611a96565b5b04925050506113da565b80841161134e576040517f227bc15300000000000000000000000000000000000000000000000000000000815260040160405180910390fd5b600084868809905082811182039150808303925060008560000386169050808604955080840493506001818260000304019050808302841793506000600287600302189050808702600203810290508087026002038102905080870260020381029050808702600203810290508087026002038102905080870260020381029050808502955050505050505b9392505050565b6113eb8282610902565b61142e5780826040517fe2517d3f000000000000000000000000000000000000000000000000000000008152600401611425929190611ac5565b60405180910390fd5b5050565b61143a6108b6565b611470576040517f8dfc202b00000000000000000000000000000000000000000000000000000000815260040160405180910390fd5b565b600080fd5b60007fffffffff0000000000000000000000000000000000000000000000000000000082169050919050565b6114ac81611477565b81146114b757600080fd5b50565b6000813590506114c9816114a3565b92915050565b6000602082840312156114e5576114e4611472565b5b60006114f3848285016114ba565b91505092915050565b60008115159050919050565b611511816114fc565b82525050565b600060208201905061152c6000830184611508565b92915050565b6000819050919050565b61154581611532565b811461155057600080fd5b50565b6000813590506115628161153c565b92915050565b60006020828403121561157e5761157d611472565b5b600061158c84828501611553565b91505092915050565b6000819050919050565b6115a881611595565b81146115b357600080fd5b50565b6000813590506115c58161159f565b92915050565b6000602082840312156115e1576115e0611472565b5b60006115ef848285016115b6565b91505092915050565b61160181611595565b82525050565b600060208201905061161c60008301846115f8565b92915050565b600073ffffffffffffffffffffffffffffffffffffffff82169050919050565b600061164d82611622565b9050919050565b61165d81611642565b811461166857600080fd5b50565b60008135905061167a81611654565b92915050565b6000806040838503121561169757611696611472565b5b60006116a5858286016115b6565b92505060206116b68582860161166b565b9150509250929050565b6000819050919050565b60006116e56116e06116db84611622565b6116c0565b611622565b9050919050565b60006116f7826116ca565b9050919050565b6000611709826116ec565b9050919050565b611719816116fe565b82525050565b60006020820190506117346000830184611710565b92915050565b61174381611532565b82525050565b600060208201905061175e600083018461173a565b92915050565b600061176f826116ec565b9050919050565b61177f81611764565b82525050565b600060208201905061179a6000830184611776565b92915050565b6117a981611642565b82525050565b60006040820190506117c460008301856117a0565b6117d160208301846117a0565b9392505050565b600082825260208201905092915050565b7f416d6f756e74206d75737420626520706f736974697665000000000000000000600082015250565b600061181f6017836117d8565b915061182a826117e9565b602082019050919050565b6000602082019050818103600083015261184e81611812565b9050919050565b600060608201905061186a60008301866117a0565b61187760208301856117a0565b611884604083018461173a565b949350505050565b611895816114fc565b81146118a057600080fd5b50565b6000815190506118b28161188c565b92915050565b6000602082840312156118ce576118cd611472565b5b60006118dc848285016118a3565b91505092915050565b7f55534443207472616e73666572206661696c6564000000000000000000000000600082015250565b600061191b6014836117d8565b9150611926826118e5565b602082019050919050565b6000602082019050818103600083015261194a8161190e565b9050919050565b600060408201905061196660008301856117a0565b611973602083018461173a565b9392505050565b7f45786368616e67652072617465206d75737420626520706f7369746976650000600082015250565b60006119b0601e836117d8565b91506119bb8261197a565b602082019050919050565b600060208201905081810360008301526119df816119a3565b9050919050565b60006040820190506119fb600083018561173a565b611a08602083018461173a565b9392505050565b7f464c53206275726e206661696c65640000000000000000000000000000000000600082015250565b6000611a45600f836117d8565b9150611a5082611a0f565b602082019050919050565b60006020820190508181036000830152611a7481611a38565b9050919050565b6000602082019050611a9060008301846117a0565b92915050565b7f4e487b7100000000000000000000000000000000000000000000000000000000600052601260045260246000fd5b6000604082019050611ada60008301856117a0565b611ae760208301846115f8565b939250505056fea2646970667358221220328147a2470940f4716cfc329abcaeeb4e5ec3719616709297328afeefb8084964736f6c63430008180033",
  "linkReferences": {},
  "deployedLinkReferences": {}
}